{
  "_format": "hh-sol-artifact-1",
  "contractName": "Ballot",
  "sourceName": "contracts/Ballot.sol",
  "abi": [
    {
      "inputs": [
        {
          "internalType": "string[]",
          "name": "candidateNames",
          "type": "string[]"
        },
        {
          "internalType": "uint256",
          "name": "_startTime",
          "type": "uint256"
        },
        {
          "internalType": "uint256",
          "name": "_endTime",
          "type": "uint256"
        },
        {
          "internalType": "address[]",
          "name": "_voterAddresses",
          "type": "address[]"
        }
      ],
      "stateMutability": "payable",
      "type": "constructor"
    },
    {
      "anonymous": false,
      "inputs": [
        {
          "indexed": false,
          "internalType": "string",
          "name": "",
          "type": "string"
        },
        {
          "indexed": false,
          "internalType": "uint256",
          "name": "",
          "type": "uint256"
        },
        {
          "indexed": false,
          "internalType": "uint256",
          "name": "",
          "type": "uint256"
        }
      ],
      "name": "AnnounceWinner",
      "type": "event"
    },
    {
      "anonymous": false,
      "inputs": [
        {
          "indexed": true,
          "internalType": "address",
          "name": "previousOwner",
          "type": "address"
        },
        {
          "indexed": true,
          "internalType": "address",
          "name": "newOwner",
          "type": "address"
        }
      ],
      "name": "OwnershipTransferred",
      "type": "event"
    },
    {
      "inputs": [
        {
          "internalType": "uint256",
          "name": "",
          "type": "uint256"
        }
      ],
      "name": "candidates",
      "outputs": [
        {
          "internalType": "uint256",
          "name": "id",
          "type": "uint256"
        },
        {
          "internalType": "string",
          "name": "name",
          "type": "string"
        },
        {
          "internalType": "uint256",
          "name": "voteCount",
          "type": "uint256"
        },
        {
          "internalType": "uint256",
          "name": "votePercentage",
          "type": "uint256"
        }
      ],
      "stateMutability": "view",
      "type": "function"
    },
    {
      "inputs": [
        {
          "internalType": "address",
          "name": "voterAddress",
          "type": "address"
        },
        {
          "internalType": "uint256",
          "name": "candidateId",
          "type": "uint256"
        },
        {
          "internalType": "uint256",
          "name": "currentTime",
          "type": "uint256"
        }
      ],
      "name": "castVote",
      "outputs": [],
      "stateMutability": "nonpayable",
      "type": "function"
    },
    {
      "inputs": [
        {
          "internalType": "uint256",
          "name": "number",
          "type": "uint256"
        }
      ],
      "name": "createRandom",
      "outputs": [
        {
          "internalType": "uint256",
          "name": "",
          "type": "uint256"
        }
      ],
      "stateMutability": "view",
      "type": "function"
    },
    {
      "inputs": [],
      "name": "getCandidates",
      "outputs": [
        {
          "components": [
            {
              "internalType": "uint256",
              "name": "id",
              "type": "uint256"
            },
            {
              "internalType": "string",
              "name": "name",
              "type": "string"
            },
            {
              "internalType": "uint256",
              "name": "voteCount",
              "type": "uint256"
            },
            {
              "internalType": "uint256",
              "name": "votePercentage",
              "type": "uint256"
            }
          ],
          "internalType": "struct Ballot.Candidate[]",
          "name": "",
          "type": "tuple[]"
        }
      ],
      "stateMutability": "view",
      "type": "function"
    },
    {
      "inputs": [],
      "name": "getPeriode",
      "outputs": [
        {
          "internalType": "uint256",
          "name": "",
          "type": "uint256"
        },
        {
          "internalType": "uint256",
          "name": "",
          "type": "uint256"
        }
      ],
      "stateMutability": "view",
      "type": "function"
    },
    {
      "inputs": [],
      "name": "getRandomVoter",
      "outputs": [
        {
          "internalType": "address",
          "name": "",
          "type": "address"
        }
      ],
      "stateMutability": "view",
      "type": "function"
    },
    {
      "inputs": [],
      "name": "getVoters",
      "outputs": [
        {
          "internalType": "address[]",
          "name": "",
          "type": "address[]"
        }
      ],
      "stateMutability": "view",
      "type": "function"
    },
    {
      "inputs": [],
      "name": "getWinningCandidate",
      "outputs": [
        {
          "components": [
            {
              "internalType": "uint256",
              "name": "id",
              "type": "uint256"
            },
            {
              "internalType": "string",
              "name": "name",
              "type": "string"
            },
            {
              "internalType": "uint256",
              "name": "voteCount",
              "type": "uint256"
            },
            {
              "internalType": "uint256",
              "name": "votePercentage",
              "type": "uint256"
            }
          ],
          "internalType": "struct Ballot.Candidate[]",
          "name": "",
          "type": "tuple[]"
        }
      ],
      "stateMutability": "view",
      "type": "function"
    },
    {
      "inputs": [],
      "name": "owner",
      "outputs": [
        {
          "internalType": "address",
          "name": "",
          "type": "address"
        }
      ],
      "stateMutability": "view",
      "type": "function"
    },
    {
      "inputs": [],
      "name": "renounceOwnership",
      "outputs": [],
      "stateMutability": "nonpayable",
      "type": "function"
    },
    {
      "inputs": [],
      "name": "rewardRandomVoter",
      "outputs": [],
      "stateMutability": "nonpayable",
      "type": "function"
    },
    {
      "inputs": [
        {
          "internalType": "uint256",
          "name": "currentTime",
          "type": "uint256"
        }
      ],
      "name": "sendData",
      "outputs": [],
      "stateMutability": "nonpayable",
      "type": "function"
    },
    {
      "inputs": [
        {
          "internalType": "address payable",
          "name": "_to",
          "type": "address"
        }
      ],
      "name": "sendEther",
      "outputs": [],
      "stateMutability": "payable",
      "type": "function"
    },
    {
      "inputs": [
        {
          "internalType": "address",
          "name": "newOwner",
          "type": "address"
        }
      ],
      "name": "transferOwnership",
      "outputs": [],
      "stateMutability": "nonpayable",
      "type": "function"
    },
    {
      "inputs": [
        {
          "internalType": "uint256",
          "name": "",
          "type": "uint256"
        }
      ],
      "name": "voterAddresses",
      "outputs": [
        {
          "internalType": "address",
          "name": "",
          "type": "address"
        }
      ],
      "stateMutability": "view",
      "type": "function"
    },
    {
      "inputs": [
        {
          "internalType": "address",
          "name": "",
          "type": "address"
        }
      ],
      "name": "voters",
      "outputs": [
        {
          "internalType": "bool",
          "name": "voted",
          "type": "bool"
        },
        {
          "internalType": "uint256",
          "name": "vote",
          "type": "uint256"
        }
      ],
      "stateMutability": "view",
      "type": "function"
    },
    {
      "inputs": [
        {
          "internalType": "uint256",
          "name": "",
          "type": "uint256"
        }
      ],
      "name": "winningCandidates",
      "outputs": [
        {
          "internalType": "uint256",
          "name": "id",
          "type": "uint256"
        },
        {
          "internalType": "string",
          "name": "name",
          "type": "string"
        },
        {
          "internalType": "uint256",
          "name": "voteCount",
          "type": "uint256"
        },
        {
          "internalType": "uint256",
          "name": "votePercentage",
          "type": "uint256"
        }
      ],
      "stateMutability": "view",
      "type": "function"
    },
    {
      "inputs": [
        {
          "internalType": "uint256",
          "name": "",
          "type": "uint256"
        }
      ],
      "name": "winningVoters",
      "outputs": [
        {
          "internalType": "address",
          "name": "",
          "type": "address"
        }
      ],
      "stateMutability": "view",
      "type": "function"
    }
  ],
  "bytecode": "0x6080604052604051620017d9380380620017d9833981016040819052620000269162000372565b620000313362000204565b818310620000915760405162461bcd60e51b815260206004820152602360248201527f5468652073746172742074696d65206973206f7665726c61707320656e642074604482015262696d6560e81b606482015260840160405180910390fd5b60005b8451811015620001425760066040518060800160405280838152602001878481518110620000c657620000c6620004db565b602090810291909101810151825260008282018190526040909201829052835460018181018655948352918190208351600490930201918255820151919290919082019062000116908262000580565b50604082015160028201556060909101516003909101558062000139816200064c565b91505062000094565b50600183905560028290556005805460ff1916905560005b600854811015620001f957620001928282815181106200017e576200017e620004db565b60200260200101516200025460201b60201c565b6008828281518110620001a957620001a9620004db565b60209081029190910181015182546001810184556000938452919092200180546001600160a01b0319166001600160a01b0390921691909117905580620001f0816200064c565b9150506200015a565b505050505062000674565b600080546001600160a01b038381166001600160a01b0319831681178455604051919092169283917f8be0079c531659141344cd1fd0a4f28419497f9722a3daafe3b4186f6b6457e09190a35050565b6001600160a01b03166000908152600760205260408120805460ff1916815560010155565b634e487b7160e01b600052604160045260246000fd5b604051601f8201601f191681016001600160401b0381118282101715620002ba57620002ba62000279565b604052919050565b60006001600160401b03821115620002de57620002de62000279565b5060051b60200190565b600082601f830112620002fa57600080fd5b81516020620003136200030d83620002c2565b6200028f565b82815260059290921b840181019181810190868411156200033357600080fd5b8286015b84811015620003675780516001600160a01b0381168114620003595760008081fd5b835291830191830162000337565b509695505050505050565b600080600080608085870312156200038957600080fd5b84516001600160401b0380821115620003a157600080fd5b818701915087601f830112620003b657600080fd5b81516020620003c96200030d83620002c2565b82815260059290921b8401810191818101908b841115620003e957600080fd5b8286015b8481101562000496578051868111156200040657600080fd5b8701603f81018e136200041857600080fd5b84810151878111156200042f576200042f62000279565b62000443601f8201601f191687016200028f565b8181528f60408385010111156200045a5760008081fd5b60005b828110156200047b578381016040015182820189015287016200045d565b506000918101870191909152845250918301918301620003ed565b5080995050508089015196505050604087015193506060870151915080821115620004c057600080fd5b50620004cf87828801620002e8565b91505092959194509250565b634e487b7160e01b600052603260045260246000fd5b600181811c908216806200050657607f821691505b6020821081036200052757634e487b7160e01b600052602260045260246000fd5b50919050565b601f8211156200057b57600081815260208120601f850160051c81016020861015620005565750805b601f850160051c820191505b81811015620005775782815560010162000562565b5050505b505050565b81516001600160401b038111156200059c576200059c62000279565b620005b481620005ad8454620004f1565b846200052d565b602080601f831160018114620005ec5760008415620005d35750858301515b600019600386901b1c1916600185901b17855562000577565b600085815260208120601f198616915b828110156200061d57888601518255948401946001909101908401620005fc565b50858210156200063c5787850151600019600388901b60f8161c191681555b5050505050600190811b01905550565b6000600182016200066d57634e487b7160e01b600052601160045260246000fd5b5060010190565b61115580620006846000396000f3fe6080604052600436106101295760003560e01c8063c1c067ae116100a5578063dd0e237311610074578063f2fde38b11610059578063f2fde38b1461035c578063f927cc291461037c578063fc8ae0cb1461039157600080fd5b8063dd0e23731461030e578063e09a0f9b1461032e57600080fd5b8063c1c067ae14610297578063cab2d76e146102ac578063cdd72253146102cc578063dcad35c7146102ee57600080fd5b806348c981e2116100fc5780638da5cb5b116100e15780638da5cb5b146102005780639904773e1461021e578063a3ec138d1461024657600080fd5b806348c981e2146101d6578063715018a6146101eb57600080fd5b806306a49fce1461012e578063145569a2146101595780631fe447d7146101865780633477ee2e146101b6575b600080fd5b34801561013a57600080fd5b506101436103b1565b6040516101509190610ed1565b60405180910390f35b34801561016557600080fd5b5061016e6104c0565b6040516001600160a01b039091168152602001610150565b34801561019257600080fd5b506101a66101a1366004610f5c565b610501565b6040516101509493929190610f75565b3480156101c257600080fd5b506101a66101d1366004610f5c565b6105c5565b6101e96101e4366004610fb6565b6105d5565b005b3480156101f757600080fd5b506101e9610657565b34801561020c57600080fd5b506000546001600160a01b031661016e565b34801561022a57600080fd5b5060015460025460408051928352602083019190915201610150565b34801561025257600080fd5b50610280610261366004610fb6565b6007602052600090815260409020805460019091015460ff9091169082565b604080519215158352602083019190915201610150565b3480156102a357600080fd5b506101e961066b565b3480156102b857600080fd5b506101e96102c7366004610fda565b6106e3565b3480156102d857600080fd5b506102e1610910565b604051610150919061100f565b3480156102fa57600080fd5b506101e9610309366004610f5c565b610972565b34801561031a57600080fd5b5061016e610329366004610f5c565b6109c7565b34801561033a57600080fd5b5061034e610349366004610f5c565b6109f1565b604051908152602001610150565b34801561036857600080fd5b506101e9610377366004610fb6565b610a10565b34801561038857600080fd5b50610143610aa0565b34801561039d57600080fd5b5061016e6103ac366004610f5c565b610ba6565b60606006805480602002602001604051908101604052809291908181526020016000905b828210156104b75783829060005260206000209060040201604051806080016040529081600082015481526020016001820180546104129061105c565b80601f016020809104026020016040519081016040528092919081815260200182805461043e9061105c565b801561048b5780601f106104605761010080835404028352916020019161048b565b820191906000526020600020905b81548152906001019060200180831161046e57829003601f168201915b5050505050815260200160028201548152602001600382015481525050815260200190600101906103d5565b50505050905090565b6000806104d1600a805490506109f1565b9050600a81815481106104e6576104e6611096565b6000918252602090912001546001600160a01b031692915050565b6009818154811061051157600080fd5b600091825260209091206004909102018054600182018054919350906105369061105c565b80601f01602080910402602001604051908101604052809291908181526020018280546105629061105c565b80156105af5780601f10610584576101008083540402835291602001916105af565b820191906000526020600020905b81548152906001019060200180831161059257829003601f168201915b5050505050908060020154908060030154905084565b6006818154811061051157600080fd5b6040516000906001600160a01b03831690829067016345785d8a00009082818181858883f193505050509050806106535760405162461bcd60e51b815260206004820152601460248201527f4661696c656420746f2073656e6420457468657200000000000000000000000060448201526064015b60405180910390fd5b5050565b61065f610bb6565b6106696000610c10565b565b60055460ff16156106be5760405162461bcd60e51b815260206004820152601860248201527f4120766f74657220616c72656164792072657761726465640000000000000000604482015260640161064a565b60006106c86104c0565b90506106d3816105d5565b506005805460ff19166001179055565b60015481116107345760405162461bcd60e51b815260206004820152601960248201527f566f74696e67206861736e277420737461727465642079657400000000000000604482015260640161064a565b60025481106107855760405162461bcd60e51b815260206004820152601060248201527f566f74696e672068617320656e64656400000000000000000000000000000000604482015260640161064a565b61078e83610c78565b6107da5760405162461bcd60e51b815260206004820152601560248201527f4e6f7420616e20656c696769626c6520766f7465720000000000000000000000604482015260640161064a565b6001600160a01b03831660009081526007602052604090205460ff16156108435760405162461bcd60e51b815260206004820152600d60248201527f416c726561647920766f74656400000000000000000000000000000000000000604482015260640161064a565b60065482106108945760405162461bcd60e51b815260206004820152601760248201527f43616e64696461746520646f65736e2774206578697374000000000000000000604482015260640161064a565b6001600160a01b0383166000908152600760205260409020805460ff1916600190811782559081018390556003546108cb916110c2565b6003819055506001600683815481106108e6576108e6611096565b9060005260206000209060040201600201600082825461090691906110c2565b9091555050505050565b6060600880548060200260200160405190810160405280929190818152602001828054801561096857602002820191906000526020600020905b81546001600160a01b0316815260019091019060200180831161094a575b5050505050905090565b600080600061098084610ce1565b9250925092507ff5a14047b2c5509302998b7da5ccbf90331d63e4d300467eeb31443c9ff640c98383836040516109b9939291906110d5565b60405180910390a150505050565b600881815481106109d757600080fd5b6000918252602090912001546001600160a01b0316905081565b6000816109ff6001436110fa565b610a0a91904061110d565b92915050565b610a18610bb6565b6001600160a01b038116610a945760405162461bcd60e51b815260206004820152602660248201527f4f776e61626c653a206e6577206f776e657220697320746865207a65726f206160448201527f6464726573730000000000000000000000000000000000000000000000000000606482015260840161064a565b610a9d81610c10565b50565b60606009805480602002602001604051908101604052809291908181526020016000905b828210156104b7578382906000526020600020906004020160405180608001604052908160008201548152602001600182018054610b019061105c565b80601f0160208091040260200160405190810160405280929190818152602001828054610b2d9061105c565b8015610b7a5780601f10610b4f57610100808354040283529160200191610b7a565b820191906000526020600020905b815481529060010190602001808311610b5d57829003601f168201915b505050505081526020016002820154815260200160038201548152505081526020019060010190610ac4565b600a81815481106109d757600080fd5b6000546001600160a01b031633146106695760405162461bcd60e51b815260206004820181905260248201527f4f776e61626c653a2063616c6c6572206973206e6f7420746865206f776e6572604482015260640161064a565b600080546001600160a01b038381167fffffffffffffffffffffffff0000000000000000000000000000000000000000831681178455604051919092169283917f8be0079c531659141344cd1fd0a4f28419497f9722a3daafe3b4186f6b6457e09190a35050565b6000805b600854811015610cd857826001600160a01b031660088281548110610ca357610ca3611096565b6000918252602090912001546001600160a01b031603610cc65750600192915050565b80610cd08161112f565b915050610c7c565b50600092915050565b60606000806002548411610d375760405162461bcd60e51b815260206004820152601760248201527f566f74696e67206861736e277420656e64656420796574000000000000000000604482015260640161064a565b60095460609060011015610d7f575060408051808201909152600a81527f49742773206120746965000000000000000000000000000000000000000000006020820152610e30565b6009600081548110610d9357610d93611096565b90600052602060002090600402016001018054610daf9061105c565b80601f0160208091040260200160405190810160405280929190818152602001828054610ddb9061105c565b8015610e285780601f10610dfd57610100808354040283529160200191610e28565b820191906000526020600020905b815481529060010190602001808311610e0b57829003601f168201915b505050505090505b806009600081548110610e4557610e45611096565b9060005260206000209060040201600201546009600081548110610e6b57610e6b611096565b906000526020600020906004020160030154935093509350509193909250565b6000815180845260005b81811015610eb157602081850181015186830182015201610e95565b506000602082860101526020601f19601f83011685010191505092915050565b60006020808301818452808551808352604092508286019150828160051b87010184880160005b83811015610f4e57603f19898403018552815160808151855288820151818a870152610f2682870182610e8b565b838a0151878b0152606093840151939096019290925250509386019390860190600101610ef8565b509098975050505050505050565b600060208284031215610f6e57600080fd5b5035919050565b848152608060208201526000610f8e6080830186610e8b565b6040830194909452506060015292915050565b6001600160a01b0381168114610a9d57600080fd5b600060208284031215610fc857600080fd5b8135610fd381610fa1565b9392505050565b600080600060608486031215610fef57600080fd5b8335610ffa81610fa1565b95602085013595506040909401359392505050565b6020808252825182820181905260009190848201906040850190845b818110156110505783516001600160a01b03168352928401929184019160010161102b565b50909695505050505050565b600181811c9082168061107057607f821691505b60208210810361109057634e487b7160e01b600052602260045260246000fd5b50919050565b634e487b7160e01b600052603260045260246000fd5b634e487b7160e01b600052601160045260246000fd5b80820180821115610a0a57610a0a6110ac565b6060815260006110e86060830186610e8b565b60208301949094525060400152919050565b81810381811115610a0a57610a0a6110ac565b60008261112a57634e487b7160e01b600052601260045260246000fd5b500690565b600060018201611141576111416110ac565b506001019056fea164736f6c6343000811000a",
  "linkReferences": {},
  "deployedLinkReferences": {}
}